:020000040000FA
:0600000072EF0FF0120088
:020006001200E6
:0600080016EF00F01200EB
:0600180084EF00F012006D
:02001E000100DF
:0C002000001F0000000E00001400000093
:04002C00DACFE4FF44
:10003000E2CFDAFFE652BFDBE652F250100B15E0DA
:10004000F250020B12E0F150400B01E0010E346E51
:100050008150100B01E0010E345C03E10E010F2B07
:1000600002D00E010F07F17CF292F050080B15E060
:10007000F050010B12E0F150200B01E0010E346E44
:100080008150200B01E0010E345C03E10E01102BC6
:1000900002D00E011007F17AF090F250080B2CE01C
:1000A000F250010B29E08150DF6EF290DF500E011B
:1000B0000219100B0DE08150100B01E0010E346E9F
:1000C0008150010B345C02E10F0714D00F2B12D0CA
:1000D000DF500219200B0EE08150200B01E0010ED1
:1000E000346E8150020B01E0010E345C02E1100716
:1000F00001D0102BDFCF02FEE552E552E7CFD9FF4A
:10010000E552E5CFDAFF1100DACFE4FFE2CFDAFF04
:10011000E9CFE4FFEACFE4FFF6CFE4FFF7CFE4FF57
:10012000F5CFE4FFF3CFE4FFF4CFE4FFFACFE4FF31
:1001300000EE18F0140EE80403E3EECFE4FFFBD763
:1001400000EE00F0180EE80403E3EECFE4FFFBD767
:10015000E6527650010B01E1A2D07750010B01E18C
:100160009ED06050800B04E10F013051800B16E0EF
:10017000210EE66E0E0EE66E180EE66E0E0EE66EA2
:10018000190EE66E0E0EE66E140EE66E0E0EE66E9E
:100190001DEC06F02C6E080EE15EE3D78050200BBC
:1001A00001E0010E010AE8B0808AE8A0809A010E01
:1001B0000E01141909E1020E151906E1165104E1A8
:1001C000175102E11CDA6AD0020E14190AE1020E7C
:1001D000151907E1165105E1175103E10E01116BE5
:1001E0005DD0030E14190BE1020E151908E116512A
:1001F00006E1175104E10E01010E116F4FD0050EFB
:10020000141943E1020E151940E116513EE1175150
:100210003CE118510EE10E01036B046B056B066B9C
:10022000076B086B096B0A6B0B6B0C6B0D6B0E6B22
:1002300035D019CE30F01ACE31F05EDA87DA1BCE27
:1002400030F01CCE31F058DA8ADA1DCE20F01ECE06
:1002500021F06DEC07F01FC030F020C031F021C05C
:1002600032F022C033F084DA34EC08F0D6DACCDA9B
:1002700034EC08F057EC09F01EC00BFE1FC00CFE5A
:1002800020C00DFE21C00EFE09D08050200B01E0E1
:10029000010E010AE8B0808AE8A0809A7790F250B7
:1002A000200B11E0F250040B0EE0F2940E011151FC
:1002B0000AE08050200B01E0010E010AE8B0808ABC
:1002C000E8A0809A9CD9E55200EE17F0180EE804D9
:1002D00003E3E5CFEDFFFBD700EE2BF0140EE804AF
:1002E00003E3E5CFEDFFFBD7E5CFFAFFE5CFF4FF62
:1002F000E5CFF3FFE5CFF5FFE5CFF7FFE5CFF6FF5D
:10030000E5CFEAFFE5CFE9FFE5CFDAFF110053DAE9
:100310000B0EE126DE6ADE6A800EDE6E3F0EDD6EBB
:10032000DD52DD52040EDB6A050EDB6A060EDB6A67
:10033000070EDB6A0F0EC16EC26AD16ADF0E926EC3
:1003400093688268E668D0EC0EF0E552E66857ECF8
:100350000EF0E552E66819EC0FF0E55281CF02FE8F
:100360000F01300E5A6F920EE66E36EC0FF0E5522A
:10037000F194BF0EE66E020EE66E060EE66E070EF6
:10038000E66E100EE66E010EE66E32EC04F04EDA0A
:10039000800EE66E82EC04F0E5524DDAE66A47EC38
:1003A00005F044DAE668E668E668E668E66A010EA3
:1003B000E66E47EC05F0C7D9E66A58EC05F0C3D9FC
:1003C000010EE66E58EC05F031DAE66A82EC04F0D4
:1003D000E552789076807790D08EF28EF28C809A6B
:1003E0000E01006B016B140E01AF02D0D89003D048
:1003F000005D000E015914E28050200B01E0010E57
:10040000010AE8B0808AE8A0809A320EE66EE66AB9
:10041000C6D8E552E5520E01002B000E0123E3D7AA
:10042000F29CF29E080E0FCEDBFF0E010F6B090E41
:1004300010CEDBFF106BF28EC8D9E724006E016A84
:10044000026A036A00AE03D00168026803680050C4
:100450000B5F01500C5B02500D5B03500E5BB5D976
:10046000E75CE76E0A0EE7CFDBFFB6D9000EDFCF01
:1004700024F0010EDBCF25F0020EDBCF26F0030EB9
:1004800048D97FD99EEC07F061D90A0EA5D9040E90
:10049000DBCF24F0050EDBCF25F0060EDBCF26F0F8
:1004A000070E37D977D99EEC07F059D910D93DD925
:1004B000A9EC0EF085D91EC0DEFF1FC0DEFF20C0F4
:1004C000DEFF21C0DDFFDD52DD5201D92ED981ECE6
:1004D0000EF076D9040E1EC0DBFF050E1FC0DBFF39
:1004E000060E20C0DBFF070E21C0DBFFF28C0FCE13
:1004F00021F05EEC07F01FC008F020C009F021C019
:100500000AF022C00BF09ED91EC004F01FC005F0F7
:1005100020C006F021C007F01EC0E6FF98D910CE1B
:1005200021F05EEC07F01FC010F020C011F021C0D8
:1005300012F022C013F086D9E552E7CF07F0E5525A
:10054000E7CF06F0E552E7CF05F0E552E7CF04F03C
:100550001EC00CF01FC00DF020C00EF021C00FF027
:100560001EC024F01FC025F020C026F021C027F0B7
:1005700004C01FF005C020F006C021F007C022F023
:100580009EEC07F02FD9246A256A800E266E400E55
:10059000276E8EEC09F0010A01E042D7A8D70BD9EB
:1005A000020EE126DE6ADD6ADE6ADD6ADECF00F079
:1005B000DDCF01F0FD0EDBCF02F0FE0EDBCF03F04E
:1005C00001500318E8AE02D0033404D00250005C9E
:1005D000035001580AE2100EE66E52EC0FF0E5529D
:1005E000DF2A010EE3E3DB2AE1D7020EE15C02E23F
:1005F000E16AE552E16EE552E7CFD9FF1200DBD8A0
:100600000A0EE12664D8B4D887EC08F057EC09F05C
:10061000060E1EC0DBFF070E1FC0DBFF080E20C04A
:10062000DBFF090E21C0DBFFE6D8ABD882D820C0A3
:10063000DEFF21C0DDFFDFD8ADD87BD8020E20C0A1
:10064000DBFF030E21C0DBFF060EDBCF1EF0070E23
:10065000DBCF1FF0080EDBCF20F0090EDBCF21F03F
:10066000A2D81AC01EF01BC01FF01CC020F01DC075
:1006700021F0A00E1E268C0E1F22000E2022212209
:1006800092D8040E1AC0DBFF050E1BC0DBFFFC0E68
:10069000E66E060EE66ED9CFE6FFDACFE6FF040E71
:1006A000E66E020EE66EE66AE66A82EC05F0006E21
:1006B000080EE15E00500009EAE00A0EE15C02E289
:1006C000E16AE552E16EE552E7CFD9FF12000BCEA9
:1006D0001EF00CCE1FF00DCE20F00ECE21F084ECDB
:1006E00007F01FC004F020C005F021C006F022C0B2
:1006F00007F08AD82EEF04F0D8903036313630C06B
:1007000020F031C021F06FEC07F087D874D834EFB7
:1007100008F0DBCF27F0A2D81FC024F020C025F0BE
:1007200021C026F022C027F0120091D822C0E6FF97
:10073000120094D8246A256A266A400E276E34EC8B
:1007400008F028EF09F072D81BEF04F01FC003FE79
:1007500020C004FE21C005FE22C006FE12001FC0FC
:1007600007FE20C008FE21C009FE22C00AFE1200BA
:10077000A00E246E0C0E256EB30E266E450E276E4F
:10078000120003CE1FF004CE20F005CE21F006CEDD
:1007900022F0120007CE1FF008CE20F009CE21F083
:1007A0000ACE22F01200A00E236E8C0E246E256A53
:1007B000266AF4EF08F0D9CFE6FFE1CFD9FF1200A7
:1007C000E552E552E552E5521200080EDBCFE6FF96
:1007D000090EDB50E5521200DBCF04F004C021F01B
:1007E0005EEF07F01FC000F020C001F021C002F052
:1007F00022C003F012000E0E246EE40E256E980E39
:10080000266E3D0E276E1200B50E246EB10E256EBB
:10081000C70E266E390E276E12001FC02CF020C0A6
:100820002DF021C02EF022C02FF01200006E060E17
:10083000E15E00501200E668E66A020EE66EE66AC5
:10084000E66A120072DF24EC0EF0E0EF03F01FC046
:10085000E6FF20C0E6FF21C0E6FF120087EC08F0AB
:04086000F2EF03F0C0
:0C086400B1DA800EE66E4CD8E552F90EB9
:10087000DBCFE6FFFA0EDBCFE6FFFB0EDBCFE6FFBA
:10088000FC0EDBCFE6FFB9DA49D8B2DA606EF90EBA
:10089000DB50100BFF0801E1608460CF30FFB4DA59
:1008A000E66AF5D804DBB0DA010EE66EF0D8A0DA1D
:1008B0009F09BF0A06E0600A08E1F70EDF6EDE520C
:1008C00007D0DF68010EDB6804D0DF68DE52F70E68
:1008D000DD6E9DDAE66ABDDA9ADA010E51DA020EB1
:1008E0004FDA030E4DDA040E4BDA050EE66EB1DA7E
:1008F000E66A08D8E552020EE15C02E2E16AE552DE
:10090000E16E66D2AEDAFE0EDB506F6EE00E6E1454
:10091000006EFE0EDB50005CF9E15AD2A2DAFE0E48
:10092000DB06FD0EDB06FC0EDB06FB0EDB06FA0E1D
:10093000DB06FE0EDB50400DF3CF43FEFD0EDB5019
:100940000E014313FC0EDB50080DF3CF44FEFA0EEC
:10095000DB504413F90EDBA4448DDBB0448FFB0E57
:10096000DBCF45FEF90EDBB2458D32D22DDAD95000
:10097000F90F006EFF0EDA2000C0DEFFDD6EF80E0C
:10098000DBA60FD0F8D946DA61DAF5D9EE52EF508E
:10099000200D6CDA01E3DB2AEED9EF50200DF35085
:1009A00026D051DA49DAE66E51DA72DAEF50080DE4
:1009B0005DDA01E3DB2A47DAEF50080DF350E00B74
:1009C000E66E44DACAD9EF863EDAEF50030B006ECA
:1009D000C4D9005008DA01E3DB2ACDD9EE52EF503A
:1009E000E66EBBD9F9D901E3DB2AC5D9EF50E66E33
:1009F0002DDA020EE15C02E2E16AE552E16EE8D135
:100A0000E3D9FB0EDBCFDEFFDBCFDDFFFA0EDBA68B
:100A100013D032DA080DF35037DA9FD90DDA2FDA16
:100A200001E3DB2A9AD908DAA6D9E850EF120BDAEB
:100A3000EF6A2EDAEF6A24D01FDA200DF350E66E4B
:100A400002DA31DA8AD9E6D923DAC6D901E3DB2A18
:100A500013DA030B006EF7D90050EF120DDAE00B3A
:100A6000E840E840E8401F0B006EEDD90050BBD9CC
:100A700001E3DB2A01DA03DA01E3DB2AFDD904DA38
:100A8000020EE15C02E2E16AE552E16EA1D19CD97D
:100A9000FE0EDB5004E1F80EDE6E0E0E03D0FC0EEF
:100AA000DE6E0E0E73D902E2E16AE552E16E90D17C
:100AB0008BD9FE0EDB50040A18E0070A12E0010A87
:100AC0000CE0030A06E0010A14E1E00EDE6E0E0EF1
:100AD00013D0E40EDE6E0E0E0FD0E80EDE6E0E0E9C
:100AE0000BD0EC0EDE6E0E0E07D0F00EDE6E0E0E8C
:100AF00003D0F40EDE6E0E0E49D902E2E16AE55231
:100B0000E16E66D1D9CFE6FFE1CFD9FF030EE12632
:100B10000F0120B704D0F10E6F166F8611D00F01B0
:100B200010B705D0F10E6F16060E6F1209D00F0127
:100B300000B704D0F10E6F166F8402D0000E71D092
:100B4000F70EDB50030B606EF70EDBB61AD0F70E14
:100B5000E66ED950FB0FE96EFF0EDA20EA6EEECF9B
:100B6000E6FFEECFE6FFEECFE6FFEFCFE6FF610E4A
:100B7000E66E0F0EE66EFADE006E070EE15E0050C6
:100B800018D0E668D950FB0FE96EFF0EDA20EA6E46
:100B9000EECFE6FFEECFE6FFEECFE6FFEFCFE6FFCC
:100BA000610EE66E0F0EE66EE1DE006E070EE15E90
:100BB0000050F80EDB50656EF70EDBAC658CD9503B
:100BC000010FE96EDACFEAFF660EEE6E0F0EED6EE4
:100BD000DF6AF80EDB50DF5C1FE2DF50E76EF90ED4
:100BE000DBCFE9FFFA0EDBCFEAFFE750E926000E84
:100BF000EA22EF50E66EDF50E76E010EDBCFE9FF31
:100C0000020EDBCFEAFFE750E926000EEA22E552AA
:100C1000E750EF6EDF2ADDD76086F10E6F16010E0A
:100C200000D0006E030EE15C02E2E16AE552E16E83
:100C30000050E552E7CFD9FF120013D9040EE12688
:100C400093D8EF6A60AE17D0F10E6F16010EF36EF7
:100C5000030EF3CFDBFF779071AE03D085D8EF861C
:100C6000719E60A426D0070E601415D9EF12010EF4
:100C700012D9EF161ED00F0130AF19D0F10E6F163A
:100C80000A0E6F12030EDB6A779271AC03D06CD838
:100C9000EF86719C070E3015FED8EF1265D8EFCFA6
:100CA00000F0020E005C05E25FD8EF8E02D0000E6D
:100CB0004BD00F0E6514E66EB4D8F5D865AC02D0F3
:100CC00053D8EF8C62A605D04FD8EF8AF70EE66EA8
:100CD00001D0E66892D8610EE66E0F0EE66E90DEE9
:100CE000006E050EE15E0050D950010FE96EDACFBB
:100CF000EAFF660EEE6E0F0EED6EDF6A92D8EF50D1
:100D0000DF5C13E2DF50E76E010EDBCFE9FF020E7E
:100D10008FD8EF50E66EDF50E76EFB0EDBCFE9FFBA
:100D2000FC0E86D8C0D8DF2AE9D7F10E6F1677AE51
:100D300003D01AD8EF88779E030EDB5002E0609E46
:100D400002D00F01309F010E006E040EE15C02E242
:100D5000E16AE552E16E00503BD0FD0EDBCFE9FFCA
:100D6000FE0EDBCFEAFF1200F70EDBCFE9FFF80E35
:100D7000DBCFEAFF1200DECFE9FFDDCFEAFF120092
:100D8000E66E67D8010EDBCFE6FF66D0DD6EF90EAA
:100D9000DBCFE6FFD950FA0FE96EFF0EDA20EA6EDC
:100DA000EECFE6FFEECFE6FFEECFE6FFEFCFE6FFBA
:100DB000DECFE6FFDDCFE6FFD9DD006E070EE15E98
:100DC0000050020EE15C12004CD8020EE126120027
:100DD000E552E7CFD9FF120066D8FD0EDB2AFE0EE2
:100DE0001200020E5CD0EF12FD0EDB2AFE0E120086
:100DF0005ED8F90EDB50600B1200FD0EDBCFE6FF74
:100E0000FE0EDBCFE6FF1200F70EE66E25D0DFCF39
:100E1000E6FF22D0EF50E840E840E8401F0BE66EC6
:100E20001200F90EDBCFE9FFFA0EDBCFEAFF12006A
:100E3000DBCFEAFFE75033D0EF50E00BE838E84073
:100E40001200030E2CD097DFF1EF06F086DF53EF90
:100E500007F02EDE57EF07F0E66AE66AE66AE66A12
:100E60001200D9CFE6FFE1CFD9FF1200F3CF00F097
:100E700074DFF350F3EF06F070DFEF501200E66E10
:100E80007ADFEE52ECEF06F0E66E75DF53EF07F017
:100E900072DF21EF07F0006E67DF00501200E926D5
:100EA000000EEA221200E552E750EF6E1200006ECB
:080EB000060EE15E0050120085
:080EB800199E05D0199E21AE20
:100EC00002D0216C198E21C01BF01A6A2B6A2A6A83
:100ED000860E1C6E1D6A08EF0AF0199E08D0199E36
:100EE00021AE05D0206C211EE86A2122198E21C076
:100EF0001BF020C01AF02B6A2A6A8E0E1C6E1D6A27
:100F000008EF0AF0199E0CD0199E21AE09D01E6C74
:100F10001F1E201E211EE86A1F2220222122198E58
:100F200021C01BF020C01AF01FC02BF01EC02AF0F9
:100F30009E0E1C6E1D6A08EF0AF0277E196A44ECAB
:100F40000AF05CEC0AF019B6ECEF09F019A20AD02D
:100F500019AA03D019BEECEF09F019A4F8EF09F0B3
:100F6000F5EF09F019AA05D019ACF8EF09F0F5EF83
:100F700009F019A00AD019A808D019BE04D019A4E4
:100F800002D001EF0AF005EF0AF02A6A1D6A275025
:100F9000225C296E10E31FC02BF020C01AF021C084
:100FA0001BF022C028F024C01FF025C020F026C06E
:100FB00021F0193A09D024C02BF025C01AF026C020
:100FC0001BF027C028F0296C199E19BC198E28C067
:100FD0001CF019B034EF0AF01A0E296034EF0AF051
:100FE0001C6A226A19A408D01F6C201E211E221E12
:100FF000E86A20222122222219AC08D02B6C1A1E6A
:101000001B1E1C1EE86A1A221B221C221E6A295261
:1010100007E02234213220321F321E32292EF9D726
:101020001F502B2620501A2221501B2222501C22F6
:101030001EC02AF0199E1CAE0BD02A6C2B1E1A1E45
:101040001B1E1C1EE86A2B221A221B221C22198E30
:101050001CA006D0D8801B321A322B322A32282A02
:1010600028C01CF008EF0AF0196A44EC0AF05CECA6
:101070000AF019B6ECEF09F019A205D019BAECEF95
:1010800009F0F3EF09F019BAFFEF09F019A005D044
:1010900019B8ECEF09F0FFEF09F019B8F3EF09F018
:1010A0001D6A7F0E22241C6EE86A1D2227501C5EDA
:1010B000E86A1D5A1A0E286E226A2A6A2B6A1A6A70
:1010C0001B6A24501F5E2550205A2650215A000EBC
:1010D000225A09E724501F2625502022265021227B
:1010E000000E222201D02A8AD8901F3620362136BF
:1010F0002236D8902A362B361A361B36282EE1D7C0
:10110000215020101F10D8A42A8A08EF0AF0196A6B
:1011100044EC0AF05CEC0AF019B6ECEF09F019A205
:1011200005D019B8ECEF09F0F3EF09F019AA05D0D2
:1011300019B0ECEF09F0F3EF09F019B002D019A8DB
:1011400002D0FFEF09F01D6A275022241C6EE86AC6
:101150001D227E0E1C5EE86A1D5A2A6A2B6A1A6AD4
:101160001B6A26502102F4CF1BF0F3CF1AF0255052
:101170002102F3502B26F4501A22000E1B22265077
:101180002002F3502B26F4501A22000E1B2224506A
:101190002102F3502A26F4502B22000E1A221B2281
:1011A00025502002F3502A26F4502B22000E1A223A
:1011B0001B2226501F02F3502A26F4502B22000E29
:1011C0001A221B2224502002F4502A26000E2B2221
:1011D0001A221B2225501F02F4502A26000E2B2211
:1011E0001A221B2208EF0AF0186AE86A26AE01EFFD
:1011F00009F0236C241E251E261E242225222622C9
:10120000181E21AE0CEF09F01E6C1F1E201E211EA1
:101210001F2220222122181EF5EC0EF021BE23EF02
:1012200009F018AE000C1E6C1F1E201E211EE86A5D
:101230001F22202221221A6C1B1E1C1E1D1E1B2277
:101240001C221D22000C18BE13EF09F01988FF0C98
:10125000196A44EC0AF019B632EF09F019A20ED05F
:1012600019B405D07F0E216EFF0E206E1FD0800EA8
:10127000216E206A1BD0216A206A18D019B0FBD7D2
:101280008F0E2260EDD77E0E2264F5D78E0E225C83
:1012900005E0D89021322032222AF8D719A406D0AE
:1012A000206C211EE86A212221AEE5D71200196ABE
:1012B00044EC0AF019B661EF09F019A20FD019B485
:1012C00007D07F0E216EFF0E206E1F6E1E6E25D082
:1012D000800E216E01D0216A000EF6D719B0FBD71F
:1012E0001E6A9F0E2260EBD77E0E2264F4D79E0EFC
:1012F000225C07E0D890213220321F321E32222A8F
:10130000F6D719A40AD01E6C1F1E201E211EE86AE3
:101310001F222022212221AEDED7120097EC09F0F5
:1013200019B6000C19B0000C19A4000C010C196AB4
:1013300044EC0AF05CEC0AF019B6120019AE08D0C1
:1013400019A004D019A802D0198012001990120017
:101350002750225C0BE12650215C08E12550205CDF
:1013600005E124501F5C02E119801200D8A002D0D0
:10137000198E10D0225027C022F0276E215026C08F
:1013800021F0266E205025C020F0256E1F5024C06D
:101390001FF0246E2750225C10E0FF0F09E0199027
:1013A00019B403D019AE1984120019AE19941200A1
:1013B000272AD89026322532243224501F5E255009
:1013C000205A2650215A21BEEAD7D8901F362036FF
:1013D0002136222EF8D7C8D77F0E226EFF0E216E3F
:1013E000206E1F6E12007F0E19BEFF0E226E02D0FD
:1013F0007F0E226E800E216E206A1F6AF3D719AE0F
:1014000004D0800E226E216AF7D7226A216AF4D7AF
:101410001B501A102B102A10F8E01DBEF0D71BBE6F
:101420000CD01C501D10EBE0D8902A362B361A3603
:101430001B361C06D8A01D06F2D71D50D4E11C286F
:10144000D2E02AAE11D07F0E2A1402E12BA00CD0DC
:101450002B2AE86A1A221B2207E3D8801B321A3291
:101460002B321C2A1C28BFE01C50C9E02BC01FF0E7
:101470001AC020F01B34216E1C30226E2132229EB5
:1014800019BE228EF2EF09F02136223602E31984CA
:10149000197E06E11980226A216A206A1F6A1200F9
:1014A000222803E0D88021321200D890213202E1B4
:1014B00019821200198612002636273602E3198C8B
:1014C000197E06E11988276A266A256A246A1200AD
:1014D000272803E0D88026321200D8902632EAE18D
:0414E000198A120053
:0C14E400D9CFE6FFDACFE6FFE1CFD9FF59
:1014F000E2CFDAFF220EE12402E3E168E652E16E78
:10150000D950130FE66E000EDA20E66EA8DA47EC2B
:101510000DF0006E060EE15C02E2E16AE552E16E5A
:101520000050E76E0E0EE7CFDBFFDB50840B0CE0C4
:10153000210E0E01306F316B0F0EDB68100EDB6871
:10154000110EDB687F0E6ED08ADA36DA020E1EC00C
:10155000DBFF030E1FC0DBFF040E20C0DBFF050E08
:1015600021C0DBFF87DA246A100E256E490E266E35
:10157000460E14DA8EEC09F0010A32E07BDA67DA03
:101580000DDA34EC08F0BFD9060EDBCF1FF0070EE2
:10159000DBCF20F0080EDBCF21F0090EDBCF22F0ED
:1015A00057EC09F084EC07F0AED964DA060EDBCF15
:1015B00008F0070EDBCF09F0080EDBCF0AF0090EAA
:1015C000DBCF0BF044DA276E08C01FF009C020F013
:1015D0000AC021F00BC022F048DA9DEC07F0C4D914
:1015E000F90EDB5012E00E0EDB040BE1FA0EDBCF3E
:1015F00000F0FB0EDBCF01F0FC0EDBCF02F0FD0EA6
:1016000052D167D9266AF8D947D00E0EDB0419E10A
:101610000F0EDB6A100EDB6A800EF36E110EF3CF35
:10162000DBFF3F0EF36E120EF3CFDBFF0F0EDBCFAF
:1016300000F0100EDBCF01F0110EDBCF02F0120E26
:1016400032D1190EDB6A45D9800E266ED5D9006AD3
:10165000016A026A3F0E036ED950060FE96E000E52
:10166000DA20EA6EEECF1FF0EECF20F0EECF21F0C1
:10167000EFCF22F000C024F001C025F002C026F018
:1016800003C027F09DEC07F022C0EDFF21C0EDFF65
:1016900020C0EDFF1FC0EFFFDF50010B0AE0190E65
:1016A000DB5002E0000E01D0010EE76E190EE7CF0D
:1016B000DBFF8CD9060EDBCF0CF0070EDBCF0DF075
:1016C000080EDBCF0EF0090EDBCF0FF0246A256A7F
:1016D000490E266E400E276E0CC01FF00DC020F084
:1016E0000EC021F00FC022F087EC08F05CD9A6D91B
:1016F00095D99DEC07F077D9060EDBCF14F0070ED5
:10170000DBCF15F0080EDBCF16F0090EDBCF17F09C
:10171000220E246EAA0E256E7D0E266E3A0E276EC0
:1017200014C01FF015C020F016C021F017C022F021
:1017300087EC08F01FC010F020C011F021C012F09B
:1017400022C013F0EDD89DEC07F00A0E1FC0DBFF9E
:101750000B0E20C0DBFF0C0E21C0DBFF0D0E22C0E4
:10176000DBFFD9500A0FE96E000EEAD825D91EC05A
:1017700000F01FC001F020C002F021C003F0246A75
:10178000256A800E266E390E276E1EC01FF04FD9B7
:101790008EEC09F0010A13E1D9500A0FE96E000E30
:1017A000DA20EA6E020EEECFDBFF030EEECFDBFF98
:1017B000040EEECFDBFF050EEECFDBFF68D0E1D8E5
:1017C0000A0EDBCF24F00B0EDBCF25F00C0EDBCFA7
:1017D00026F00D0EDBCF27F087EC08F01A0E1FC0A5
:1017E000DBFF1B0E20C0DBFF1C0E21C0DBFF1D0E2C
:1017F00022C0DBFF5B0E1F6E9C0E206E2E0E216E34
:10180000360E226E72D8CFD8220E246EB20E256EFE
:101810004F0E266EB90E32D99ED83E0E246E870E1C
:10182000256E080E266E3C0E29D9DDD8A40E246E36
:10183000AA0E256E2A0E266EBE0E20D91E0E1FC0C1
:10184000DBFF1F0E20C0DBFF200E21C0DBFF210EBF
:1018500022C0DBFF0A0EDBCF00F00B0EDBCF01F066
:101860000C0EDBCF02F00D0EDBCF03F08AD81E0E7C
:10187000DBCF24F01F0EDBCF25F0200EDBCF26F0D0
:10188000210EDBCF27F0F1D89EEC07F06DD8190EB2
:10189000DB5008E09BD8246A256A800E266EBF0EB6
:1018A000F0D803D042D8DBCF03F000C01EF001C057
:1018B0001FF002C020F003C021F0220EE15C02E222
:1018C000E16AE552E16EE552E5CFDAFFE7CFD9FFF5
:1018D00012007CD8830E246EF90E256EA20E266EA1
:1018E0003E0ECFD8246A256A12001A0EDBCF24F0F0
:1018F0001B0EDBCF25F01C0EDBCF26F01D0EDBCF41
:1019000027F087EF08F0060E1FC0DBFF070E20C090
:10191000DBFF080E21C0DBFF090E22C0DBFF120037
:101920008DD800C01FF017EF0DF0020EDBCF00F0D6
:10193000030EDBCF01F0040EDBCF02F0050E120028
:10194000DA20EA6EEECFE6FFEECFE6FFEECFE6FF5F
:10195000EFCFE6FF12001FC004F020C005F021C049
:1019600006F022C007F01200020E1FC0DBFF030EBC
:1019700020C0DBFF040E21C0DBFF050E22C0DBFF11
:1019800012000A0EDBCF1FF00B0EDBCF20F00C0E87
:10199000DBCF21F00D0EDBCF22F01200276E00C04E
:1019A0001FF017EF0DF01FC008F020C009F021C094
:1019B0000AF022C00BF0120024EC0EF0E552E552C2
:1019C000E552E5521200276E9EEF07F0020EDBCFC4
:1019D00004F0030EDBCF05F0040EDBCF06F0050E9E
:1019E000DBCF07F012001FC000F020C001F021C0C3
:1019F00002F022C003F012003F0EE5DF28EC09F0F0
:101A000020C0DEFF21C0DDFF000EDFCF20F0010E81
:101A1000DBCF21F06FEC07F083EF0CF004C01FF078
:101A200005C020F006C021F007C022F0120001C05E
:101A300020F002C021F003C022F012001FC024F0E9
:101A400020C025F021C026F022C027F01200DB0EB6
:101A5000246E0F0E256EC90E266E400E1200D95050
:101A6000FA0FE96EFF0EA0EF0CF087EC08F073DFC1
:101A700090EF0CF05ADFDBCF03F01200A4DF75EF1C
:0E1A80000CF0276ECBDF87EC08F0F3EF0CF0D4
:021A8E00D9CFAE
:101A9000E6FFDACFE6FFE1CFD9FFE2CFDAFFE65289
:101AA000006801687F0E026E036AD950FA0FE96E72
:101AB000FF0EDA20EA6EEE500016EE500116EE50E0
:101AC0000216EE5003166AD800C0EEFF01C0EEFF0A
:101AD00002C0EEFF03C0EEFFFD0EDB50800B02E004
:101AE000010E01D0000EE66E59D8060EE926000E52
:101AF000EA22E552E750EF6EFC0EDBCF00F0FD0E60
:101B0000DBCF01F0D89000360136FC0E00C0DBFFC1
:101B1000FD0E01C0DBFFDB50E66E40D8040EE92667
:101B2000000EEA22E552E750EE6EED6AFD0EDB5044
:101B3000006E016AFF0E001818E1015016E12ED860
:101B4000EECF00F0EECF01F0EECF02F0EFCF03F0DA
:101B5000005001100210031006E0210E0E01306F3C
:101B6000316B800E0BD0040E09D0FD0EDB5008E166
:101B700015D8EE6AEE6AEE6AEE6A010EDF6E06D0E6
:101B8000020EDF6E0BD8EE52EE52EE8EDF50E552B3
:101B9000E552E5CFDAFFE7CFD9FF1200F80EDBCF31
:0A1BA000E9FFF90EDBCFEAFF1200A7
:061BAA001E0EF66E000E97
:101BB000F76E000EF86E0E010900F5502B6F09004C
:101BC000F5502C6F03E12B6701D03DD00900F55093
:101BD000266F0900F550276F0900F550286F09009E
:101BE0000900F550E96E0900F550EA6E0900090098
:101BF0000900F550296F0900F5502A6F0900090006
:101C0000F6CF2DFEF7CF2EFEF8CF2FFE26CEF6FF15
:101C100027CEF7FF28CEF8FF0E01295302E12A5301
:101C200007E00900F550EE6E2907F8E22A07F9D718
:101C30002DCEF6FF2ECEF7FF2FCEF8FF0E012B078D
:081C4000000E2C5BBFD712005F
:081C4800D9CFE6FFDACFE6FF79
:101C5000E1CFD9FFE2CFDAFFE652E652D950FD0FCD
:101C6000006EFF0EDA2000C0DEFFDD6EDECFE9FF82
:101C7000DDCFEAFFEF9EFA0EDBCF00F0FB0EDBCFED
:101C800001F0FC0EDBCF02F0FD0EDBCF03F000C055
:101C90001EF001C01FF002C020F003C021F0E55289
:0E1CA000E552E552E5CFDAFFE7CFD9FF12009B
:021CAE00D9CF8C
:101CB000E6FFDACFE6FFE1CFD9FFE2CFDAFFF0901F
:101CC000FD0EDBA202D0F18A01D0F19ADBA002D096
:101CD000F18E01D0F19EDBAC02D0F18001D0F19009
:101CE000DBAC02D0F08C01D0F09C9382DBAE02D052
:101CF000F08601D0F096E552E5CFDAFFE7CFD9FFC5
:021D00001200CF
:0E1D0200D9CFE6FFDACFE6FFE1CFD9FFE2CF7F
:101D1000DAFF010EE66ED950FA0FE96EFF0EDA20F7
:101D2000EA6EEECFE6FFEECFE6FFEECFE6FFEFCFB7
:101D3000E6FF72EC0AF0006E050EE15C02E2E16A79
:101D4000E552E16E0050E552E5CFDAFFE7CFD9FF6B
:021D500012007F
:0E1D5200D9CFE6FFDACFE6FFE1CFD9FFE2CF2F
:101D6000DAFFE66AD950FA0FE96EFF0EDA20EA6E62
:101D7000EECFE6FFEECFE6FFEECFE6FFEFCFE6FFDA
:101D800072EC0AF0006E050EE15C02E2E16AE552D7
:101D9000E16E0050E552E5CFDAFFE7CFD9FF120040
:101DA000D9CFE6FFDACFE6FFE1CFD9FFE2CFDAFF06
:101DB000F292FD0EDBA202D0F18C01D0F19CDBA0EF
:101DC00002D0F18E01D0F19E9380DBAC02D0F18085
:101DD00001D0F190DBAE02D0F28801D0F298E5524A
:0A1DE000E5CFDAFFE7CFD9FF1200CC
:061DEA001D6A1C6A1B6A61
:101DF0001A6A200EE76ED8901E361F36203621361E
:101E00001A361B361C361D3623501A5C24501B58BC
:101E100025501C5826501D5809E323501A5E2450A3
:101E20001B5A25501C5A26501D5A1E2AE72EE4D74D
:021E300012009E
:0E1E3200D9CFE6FFDACFE6FFE1CFD9FFE2CF4E
:101E4000DAFFE6528150DF6EFD0EDBA002D0F18E8C
:101E500001D0F19EDBAE02D0F28601D0F296E552BF
:0C1E6000E552E5CFDAFFE7CFD9FF120012
:041E6C00D9CFE6FFE5
:101E7000DACFE6FFE1CFD9FFE2CFDAFFFD0EDB508C
:101E80007F0BD56ED76AD66AF294FD0EDBAE02D018
:101E9000F28A01D0F29AD58EE552E5CFDAFFE7CF8C
:041EA000D9FF120054
:0C1EA400FF0EE350356E480E01D04C0ECE
:101EB000E76EE72EFED7E76AE72EFED7352EF7D777
:041EC000000012000C
:0C1EC400410EF36E00EE00F00E0E01D88F
:101ED0001200EA6002D0EE6AFCD7F350E96012000B
:041EE000EE6AFCD7D3
:0C1EE4001DEE00F02DEE00F0F86A199CD5
:101EF000D5EC0DF003EC00F087EC01F0FBD71200FD
:101F000000000000000000000000000000000000D1
:041F100000000000CD
:020000040030CA
:010000001DE2
:0100010012EC
:01000200619C
:010003007C80
:010005008179
:010006009168
:00000001FF
