:020000040000FA
:06000000CAEF03F012003C
:020006001200E6
:0600080041EF02F01200BE
:02000E000000F0
:0300100064000089
:060018004FEF02F01200A0
:02001E000100DF
:0C0020000E0000000A0E000005000000A9
:04002C008288829AAA
:1000300012008298828A1200EAD99490949206DA89
:100040003C0EE66E3BEC03F0E552E552E552E4D19E
:10005000DED9ACA2FED7FE0EDBCFE6FF93EC03F0B9
:10006000E552FE0EDB500E011027D6D1D0D9E65254
:1000700074EC03F0DF6EDF500E011027DF50E55205
:10008000CBD1C5D9D3DFE668F0D9E668EED90E0149
:10009000106BFD0EF2D9D3D9020E0024E66EC6D93C
:1000A000BBD1B5D9020EE126DE6ADD6ADECF00F0F3
:1000B000DDCF01F0FD0EDBCF02F0FE0EDBCF03F053
:1000C00001500318E8AE02D0033404D00250005CA3
:1000D000035001580FE2B3D9DE500024E96EDD5021
:1000E0000120EA6EEF50E66EC0D9DF2A010EDEE392
:1000F000DB2ADCD7020EE15C02E2E16AE552E16E46
:100100008BD10E01101DE66E35EF02F080D9040E82
:10011000E126030EDB6AACA2FED78BDF030EDBCF3A
:1001200000F0016A00BE0168020EE76EFB0EDBCF35
:1001300002F0FC0EDBCF03F0E7500226000E032294
:1001400001500318E8AE02D0033404D00250005C22
:100150000350015833E29EAAE1D788DFE76E020E12
:10016000E7CFDBFF030EDB50020802E10E01106B4C
:10017000030EDBCF00F0010EE76E0018E8AE02D0F0
:10018000003403D0E750D880005415E2030EDBCFD3
:1001900000F0016A00BE0168F90EDB500024E96E30
:1001A000FA0EDB500120EA6E020EE95E000EEA5AFA
:1001B000020EDBCFEFFF030EDB2AB0D7F36AF46A3F
:1001C000040EE15C02E2E16AE552E16E25D11FD93D
:1001D000010EE66E020E12D994DFDAD81DD117D9BE
:1001E000020EE66E0BD9FC0EDBCFE6FF1FD989DFCE
:1001F000F36AF46A11D10BD9030ED6D805E1015088
:1002000003E1F36AF46A01D0C3D806D100D9040E21
:10021000CBD805E1015003E1F36AF46A01D0B8D804
:10022000FBD0F5D8050E24D905E1015003E1F36AAE
:10023000F46A01D0ADD8F0D0EAD8060E19D905E19C
:10024000015003E1F36AF46A01D0A2D8E5D0DFD807
:10025000FE0EDB5046E0060A44E00E0A42E0060AC3
:1002600040E01A0A3EE0020A3CE0080A3AE03E0A90
:1002700038E0020A36E0060A34E0020A32E00E0AEA
:1002800030E0180A2EE0320A2AE0010A28E0070AC4
:1002900026E0010A24E00E0A22E0070A20E0010A13
:1002A0001EE01D0A1CE0010A1AE0030A18E0010A18
:1002B00016E00B0A14E0010A12E0030A10E0010A3A
:1002C0000EE0070A0CE0010A0AE0370A08E0010A1A
:1002D00006E0070A04E0020A02E0010A05E1010E55
:1002E00001D0020EF36E01D0F36AF46A95D08FD874
:1002F000020EE12695D8F3CFDEFFF4CFDDFFD95013
:10030000FA0FE66EFF0EDA20E66E8AD8F3CF00F021
:10031000F4CF01F0F3CFE6FFF4CFE6FF8BD86BDF2D
:10032000026E070EE15E0250020EE15C02E2E16A3B
:10033000E552E16E71D06BD8050EE12671D8020E40
:10034000F3CFDBFF030EF4CFDBFF020EDBCFE6FFC4
:10035000030EDBCFE6FF6ED842DF006E050EE15ED6
:100360000050040EF3CFDBFFDB5003E0F368F468CA
:1003700008D0DECF00F0DDCF01F000C0F3FF01C0F8
:10038000F4FF050EE15C02E2E16AE552E16E44D061
:10039000000EE66EE66AE66EE66A58D8B7DE006ED4
:1003A000060EE15E00501200E66EFA0EDBCF00F0A2
:1003B000FB0EDBCF01F0010E0026000E012200C073
:1003C000E6FF01C0E6FF42D85CDE026E050EE15E8C
:1003D0000250FC0E52D8F80EDBCFE6FFF90EDBCF51
:1003E000E6FFFA0EDBCFE6FFFB0EDBCFE6FF59DEC2
:1003F000E552E552E552E5522DEF02F0E66EE66A6F
:1004000025D83FDE006E050EE15E00501200D9CF08
:10041000E6FFE1CFD9FF1200E552E7CFD9FF120086
:10042000FC0EDBCFE6FF13DFE55212001ED8FA0EFA
:100430003DEF02F0FC0EDBCFE6FF26EF02F0FB0EF5
:10044000DBCF00F0FC0EDBCF01F01200FD0EDBCFA6
:10045000E6FFFE0EDBCFE6FF120053DEFD0EDB50A3
:10046000006E016AFE0E00181200F2DDE552120065
:10047000E66E000EC3DF2DEF02F0DBCFE6FF35EFB7
:0204800002F088
:0E048200DACFE4FFE6529D50200B04E09E50BE
:10049000200B01E09E9AE552E5CFDAFF1100DACF9A
:1004A000E4FFE652E552E5CFDAFF11000F0EC16E10
:1004B000C26A0F015C6BD16AFC0E926E93688F0E5C
:1004C000946E8B68810EE66EE66A7C0EE66E3BECFF
:1004D00003F0E552E552E552829A82880E010A6BDA
:1004E0000B6B140E0A5D000E0B591DE28250200B9F
:1004F00001E0010E010AE8B0828AE8A0829A8250E7
:10050000100B01E0010E010AE8B08288E8A0829891
:10051000320EE66EE66A2DD8E552E5520E010A2B40
:10052000000E0B23DED7829A8298030E0D6F010E08
:100530000A6F0B6BE80EE66E030EE66E1AD8E552F4
:10054000E5520E010A510B1102E0000E01D0010E1E
:100550000A6F0B6B800B01E00B69040EE66E0DCE8B
:10056000E6FF0ECEE6FF9BEC01F0E552E552E552C8
:10057000E1D7D9CFE6FFE1CFD9FF020EE126DE6A4F
:10058000DD6ADE6ADD6ADECF00F0DDCF01F0FD0E50
:10059000DBCF02F0FE0EDBCF03F001500318E8AE14
:1005A00002D0033404D00250005C035001580AE228
:1005B000050EE66EAAEC03F0E552DF2A010EE3E336
:1005C000DB2AE1D7020EE15C02E2E16AE552E16E6C
:0805D000E552E7CFD9FF12004C
:0805D8001E0EF66E000EF76E18
:1005E000000EF86E0E010900F550056F0900F55078
:1005F000066F03E1056701D03DD00900F550006F9B
:100600000900F550016F0900F550026F090009005B
:10061000F550E96E0900F550EA6E0900090009007D
:10062000F550036F0900F550046F09000900F6CF7B
:1006300007FEF7CF08FEF8CF09FE00CEF6FF01CE89
:10064000F7FF02CEF8FF0E01035302E1045307E067
:100650000900F550EE6E0307F8E20407F9D707CE5C
:10066000F6FF08CEF7FF09CEF8FF0E010507000ED2
:06067000065BBFD712007B
:0A067600D9CFE6FFDACFE6FFE1CFAF
:10068000D9FFE2CFDAFFAC6AAB6AFD0EDBB0AC8813
:10069000DBA202D0AC8CAB8CDBB4AC8EDBA602D080
:1006A000AB8801D0AB8ADBB8AC84DBBAAB86DBAC01
:1006B00002D09D8A01D09D9ADBAE02D09D8801D0E8
:1006C0009D98FB0EDB50AF6EFC0EDBCF01F001C03E
:1006D00000F0016A00507D6EAC8AAB8EE552E5CF2A
:0806E000DAFFE7CFD9FF120099
:0806E800D9CFE6FFDACFE6FFEF
:1006F000E1CFD9FFE2CFDAFFE652F20E0E010F177B
:10070000ABAC03D00F91ABB00F81ABB40F85ABB2E4
:100710000F87AE50DF6EDF50E552E552E5CFDAFFCE
:06072000E7CFD9FF120033
:0A072600D9CFE6FFDACFE6FFE1CFFE
:10073000D9FFE2CFDAFFACAC04D0AC900E010FB31E
:10074000AC80FD0EDB50AD6EE552E5CFDAFFE7CFB2
:04075000D9FF1200BB
:0C075400FF0EE350066E480E01D04C0E64
:10076000E76EE72EFED7E76AE72EFED7062EF7D70D
:040770000000120073
:0C077400410EF36E00EE00F00E0E01D8F6
:100780001200EA6002D0EE6AFCD7F350E960120072
:04079000EE6AFCD73A
:0C0794001DEE00F02DEE00F0F86A059C50
:1007A000ECEC02F003EC00F056EC02F0FBD7120088
:020000040030CA
:010000001DE2
:0100010002FC
:01000200619C
:010003007C80
:010005008179
:010006009168
:00000001FF
